:100000000C9486000C94B1000C94B1000C94B100D7
:100010000C94B1000C94B1000C94B1000C94B1009C
:100020000C94B1000C94B1000C94B1000C94B1008C
:100030000C94B1000C94B1000C94B1000C945E08C7
:100040000C94B1000C94B1000C94510D0C94B100BF
:100050000C94B1000C94B1000C94B1000C94B1005C
:100060000C94B1000C94B1000C94D10A0C94B10022
:100070000C94B1000C94B1000C94B1000C94B1003C
:100080000C94B1000C94B1000C94B100000021005C
:10009000240027002A0000002200250028002B0051
:1000A00000002000230026002900020202020202B2
:1000B000020204040404040404040303030303030A
:1000C00003030101010101010101010204081020E3
:1000D0004080010204081020408001020408102022
:1000E000408001020408102040800000000102004E
:1000F00008090000000004030706000000000000DB
:10010000000000000000000000006D0911241FBE67
:10011000CFEFD0E4DEBFCDBF11E0A0E0B1E0E0E280
:10012000F0E200E00BBF02C007900D92A83EB107BD
:10013000D9F71BBE13E0A8EEB1E001C01D92A839AB
:10014000B107E1F711E0CCE0D1E004C02297FE0155
:100150000E940A10CA30D107C9F70E94490F0C94B7
:100160000E100C9400009091ED01892F8A52863078
:1001700050F480911D018093070286EC8093060263
:100180002091FF0169C0892F8651863048F48CE5A3
:100190008093070286EC80930602209100025CC0E7
:1001A00092509630D8F52091F001822F6AE00E949B
:1001B000FB0FE82FFF27E7FDF095E050FF4F808110
:1001C00080930402822F6AE00E94FB0FE92FFF2731
:1001D000E7FDF095EF5EFE4F808180688093050219
:1001E0002091F201822F6AE00E94FB0FE82FFF2787
:1001F000E7FDF095E050FF4F808180930602822F4B
:100200006AE00E94FB0FE92FFF27E7FDF095EF5E04
:10021000FE4F808180688093070208952091EE014F
:10022000822F6AE00E94FB0FE92FFF27E7FDF09580
:10023000EF5EFE4F808180930702822F6AE00E946A
:10024000FB0FE82FFF27E7FDF095E050FF4F80817F
:10025000809306022091EF01822F6AE00E94FB0F3B
:10026000E92FFF27E7FDF095EF5EFE4F8081809339
:100270000502822F6AE00E94FB0FE82FFF27E7FDAF
:10028000F095E050FF4F8081809304020895482F3D
:100290006AE00E94EF0F282F30E084E0220F331F26
:1002A0008A95E1F7842F0E94EF0F892F820F08951E
:1002B0001F93CF93DF938091C802882309F068C011
:1002C000C4E1D2E0A0E5B2E0ECE8F2E080E090E04A
:1002D00004C019921D92119201968C339105CCF3B2
:1002E0009093FA018093F901E091ED01FF27E7FD7A
:1002F000F095EC5EFD4F91E09083E091EE018E2F42
:1003000081508A3350F4FF27E7FDF095E05BFD4F05
:1003100090839293319691830FC0EB3339F490938D
:100320008A0290938B029093500206C090938B02A6
:100330009093500290935102E091EF01EC3034F031
:1003400085E0E802C00111248C5304C085E0E89FD9
:10035000802D1124181684F4E82FFF27E7FDF0956F
:10036000E457FD4F81E080838293319681833297F9
:100370008083329682831AC181E08093C602809383
:10038000C70280938C0280938D0280938E020EC1EF
:10039000813009F08FC044E152E060E572E02CE862
:1003A00032E0EA01DB01F90180E090E004C019923B
:1003B0001D92119201968C339105CCF39093FA0122
:1003C0008093F9019091EF019C303CF085E0980218
:1003D000C0011124B82FBC5304C085E0989FB02DF4
:1003E00011241091ED01112389F4E4E1F2E080E0A1
:1003F00090E002C0119201968C339105DCF390934A
:10040000FA018093F90181E080931402A091EE013A
:10041000AA2389F4E0E5F2E080E090E002C01192C6
:1004200001968C339105DCF39093FA018093F901E6
:1004300081E080935002BB2389F480E090E004C007
:10044000F90111929F0101968C339105CCF39093A1
:10045000FA018093F90181E080938C0280E091E0C1
:1004600004C0FA019193AF018F5F1817D4F780E0B1
:1004700091E004C0FB019193BF018F5FA817D4F7EF
:100480002B2F332727FD30958A2F6FE00E94FB0F1B
:10049000992787FD9095280F391F80E090E041E073
:1004A00005C0FC01E457FD4F40830196281739072A
:1004B000C4F77CC0823009F079C024E132E060E505
:1004C00072E04CE852E0E901DB01FA0180E090E0E3
:1004D00004C019921D92119201968C339105CCF3B0
:1004E0009093FA018093F9019091EF019C303CF0D8
:1004F00085E09802C0011124B82FBC5304C085E0E8
:10050000989FB02D1124A091EE01AA2389F4E0E573
:10051000F2E080E090E002C0119201968C339105E8
:10052000DCF39093FA018093F90181E0809350020B
:10053000BB2389F480E090E004C0FA011192AF017E
:1005400001968C339105CCF39093FA018093F901D5
:1005500081E080938C0281E0F90180832B5F3F4F23
:10056000F2E020353F07C1F780E091E004C0FB01D5
:100570009193BF018F5FA817D4F72B2F332727FD47
:1005800030958A2F6FE00E94FB0F992787FD909589
:10059000280F391F80E090E041E005C0FC01E457DE
:1005A000FD4F4083019628173907C4F7DF91CF919B
:1005B0001F91089580910E0290910F0223E0893ED1
:1005C000920724F423E0853D92071CF0109212025A
:1005D000089523E0813C920714F082E03BC023E0C1
:1005E0008D3A920714F084E035C023E089399207F0
:1005F00014F086E02FC023E08538920714F088E0DD
:1006000029C023E08137920714F08AE023C023E059
:100610008132920714F08CE01DC022E08D3B9207DE
:1006200014F08FE017C022E08935920714F084E1BE
:1006300011C021E0853F920714F08EE10BC021E04C
:100640008139920714F088E205C021E08D329207CB
:1006500024F082E38093120208958C52914019F0A5
:100660008CE3809312020895CF93DF9384B58F7744
:1006700084BD5E98C7E3D0E0D093FC01C093FB013A
:10068000FE01EC5EFD4F84E060810E94E60E5F9A01
:100690005F98E091FB01F091FC01E05BFD4F84E08D
:1006A00060810E94E60E5F9A5F98E091FB01F091F5
:1006B000FC01E457FD4F84E060810E94E60E5F9AE2
:1006C0005F98E091FB01F091FC01EC5EFD4F84E04E
:1006D00061810E94E60E5F9A5F98E091FB01F091C4
:1006E000FC01E05BFD4F84E061810E94E60E5F9AB1
:1006F0005F98E091FB01F091FC01E457FD4F84E02D
:1007000061810E94E60E5F9A5F98E091FB01F09193
:10071000FC01EC5EFD4F84E062810E94E60E5F9A70
:100720005F98E091FB01F091FC01E05BFD4F84E0FC
:1007300062810E94E60E5F9A5F98E091FB01F09162
:10074000FC01EC5EFD4F84E064810E94E60E5F9A3E
:100750005F98E091FB01F091FC01E05BFD4F84E0CC
:1007600064810E94E60E5F9A5F98E091FB01F09130
:10077000FC01E457FD4F84E064810E94E60E5F9A1D
:100780005F98E091FB01F091FC01E457FD4F84E09C
:1007900063810E94E60E5F9A5F98E091FB01F09101
:1007A000FC01E05BFD4F84E063810E94E60E5F9AEE
:1007B0005F98E091FB01F091FC01EC5EFD4F84E05D
:1007C00063810E94E60E5F9A5F98E091FB01F091D1
:1007D000FC01E457FD4F84E062810E94E60E5F9ABF
:1007E0005F985C985F9A5F9825978FEFCB3FD8070B
:1007F00009F042CF84B58F7784BD5E9ADF91CF91A7
:100800000895CF93DF9389E060E00E94E60EC7E091
:10081000D0E060910702772767FD70950C2E02C02B
:10082000759567950A94E2F76170707083E00E9495
:10083000E60E5A9A5A9821978FEFCF3FD80749F77B
:10084000C7E0D0E060910602772767FD70950C2E17
:1008500002C0759567950A94E2F76170707083E045
:100860000E94E60E5A9A5A9821978FEFCF3FD807E9
:1008700049F7C7E0D0E060910502772767FD7095E2
:100880000C2E02C0759567950A94E2F7617070703E
:1008900083E00E94E60E5A9A5A9821978FEFCF3F35
:1008A000D80749F7C7E0D0E060910402772767FDD9
:1008B00070950C2E02C0759567950A94E2F76170E9
:1008C000707083E00E94E60E5A9A5A9821978FEF33
:1008D000CF3FD80749F789E061E00E94E60EDF913B
:1008E000CF910895CF93DF93C4E1D2E0A0E5B2E0C9
:1008F000ECE8F2E080E090E004C019921D921192C1
:1009000001968C339105CCF39093FA018093F90111
:100910001092040210920502109206021092070231
:100920000E9434030E940104DF91CF910895CF9378
:10093000DF931092F5011092F401909111028091D1
:100940001202891708F071C0809101028F5F8093B5
:100950000102833011F410920102109211024091B1
:100960000102552747FD50958091F70190E0DC0189
:10097000AA0FBB1FA80FB91FA40FB51FAA0FBB1F3B
:10098000A25ABE4F8091F60190E0FC01EE0FFF1FCE
:10099000E80FF91FE40FF51FEE0FFF1FEE5DFE4F8E
:1009A0002D913C9180819181282B392B8091F801E8
:1009B00090E0FC01EE0FFF1FE80FF91FE40FF51F99
:1009C000EE0FFF1FE656FE4F80819181282B392BB9
:1009D0003093F5012093F40184B58F7D84BD5D983B
:1009E000809180008F7D809380002A98CFE0D0E0B6
:1009F0006091F4017091F5010C2E02C07595679518
:100A00000A94E2F7617070708BE00E94E60E2D9AF6
:100A10002D9821978FEFCF3FD80751F78091800015
:100A20008F7D809380002A9A07C09F5F9093110268
:100A300084B58F7D84BD5D9ADF91CF9108950F932A
:100A40001F9305E113E0C80168E670E00E943309D6
:100A5000C8016091EC010E94B5098091ED010E94EE
:100A60004701682F70E06F777070C8010E94B50968
:100A70008091EE010E944701682FC8010E94B509CC
:100A80008091EF010E944701682FC8010E94B509BB
:100A90008091F1010E944701682FC8010E94B509A9
:100AA0008091F0010E944701682FC8010E94B5099A
:100AB0008091F2010E944701682FC8010E94B50988
:100AC0008091F3010E944701682FC8010E94B50977
:100AD000C8010E94F8091F910F91089586B186B14F
:100AE00086B181E080930A02813029F486B186B113
:100AF00086B11092080280910902823009F446C042
:100B0000833034F4882371F0813009F0F5C024C0BB
:100B1000843009F4AFC084300CF472C0853009F021
:100B2000EBC0E4C080910802813021F48091EF0194
:100B30008F5F05C0823029F48091EF01815080934E
:100B4000EF018091EF0188310CF087E1282F87FDBC
:100B500020E02093EF0135C080910802813021F41C
:100B60008091EE018F5F05C0823029F48091EE0103
:100B700081508093EE018091EE018C330CF08BE379
:100B8000282F87FD20E02093EE0155C080910802B8
:100B9000813021F48091F0018F5F05C0823029F40B
:100BA0008091F00181508093F0018091F00118163E
:100BB00014F021E004C0282F80320CF02FE12093A4
:100BC000F0011092070210920602822F6AE00E9442
:100BD000FB0FE92FFF27E7FDF095EF5EFE4F8081C9
:100BE00080930502822F6AE00E94FB0FE82FFF2707
:100BF000E7FDF095E050FF4F8081809304027CC0B8
:100C000080910802813021F48091F2018F5F05C04C
:100C1000823029F48091F20181508093F201809119
:100C2000F201181614F021E004C0282F8D300CF0CA
:100C30002CE02093F2011092050210920402822F00
:100C40006AE00E94FB0FE92FFF27E7FDF095EF5EBA
:100C5000FE4F808180930702822F6AE00E94FB0F83
:100C6000E82FFF27E7FDF095E050FF4F808180934C
:100C7000060242C080910802813021F48091F30184
:100C80008F5F05C0823029F48091F30181508093F9
:100C9000F3018091F30184360CF083E6282F87FD61
:100CA00020E02093F301809102018093040280915F
:100CB000110180930502822F6AE00E94FB0FE82F4A
:100CC000FF27E7FDF095E050FF4F808180930602FB
:100CD000822F6AE00E94FB0FE92FFF27E7FDF095C6
:100CE000EF5EFE4F80818093070206C00E941F05C1
:100CF0001092ED011092100286B186B186B108956E
:100D0000FF920F931F9305E113E0C80168E670E0BE
:100D10000E943309C8016091EC010E94B509C80125
:100D20000E94F809C80168E670E047E050E00E94C0
:100D3000090AC8010E944609282F2F7722952F7093
:100D40007AE0F72E2F9D900111248F70820F8093EF
:100D5000ED01C8010E944609282F22952F702F9D72
:100D6000900111248F70820F8093EE01C8010E94C0
:100D70004609282F2F7322952F702F9D9001112443
:100D80008F70820F8093EF01C8010E944609282FBF
:100D900022952F702F9D900111248F70820F8093C8
:100DA000F101C8010E944609282F22952F702F9D1E
:100DB000900111248F70820F8093F001C8010E946E
:100DC0004609282F22952F702F9D900111248F7096
:100DD000820F8093F201C8010E944609282F2295B4
:100DE0002F702F9D900111248F70820F8093F3013B
:100DF0001F910F91FF90089589EC92E00E942D09B8
:100E000088EE91E068E070E00E94840C9093FE010F
:100E10008093FD01892BE1F46091EA017091EB016F
:100E2000882777FD8095982F0E948B0F0E94580F7E
:100E30006093FF016091E8017091E901882777FDD7
:100E40008095982F0E948B0F0E94580F609300028C
:100E500089EC92E00E9424090895A8958091ED0103
:100E6000882349F480910B02882329F40E94FC0610
:100E700081E080930B028091ED01813011F410929A
:100E80000B026AE00E94FB0F992361F580910C022E
:100E9000882341F589EC92E00E942D098091F601AA
:100EA0008F5F8093F6012091F7012F5F2093F70168
:100EB0009091F8019F5F9093F8018A3010F01092A2
:100EC000F6012A3010F01092F7019A3010F01092CB
:100ED000F80189EC92E00E9424090E94DA0281E084
:100EE00080930C028091ED016AE00E94FB0F992330
:100EF00011F010920C022091EE01809113028217E2
:100F000079F09091C8029F5F9093C80220931302DA
:100F100081E080930D02933029F41092C80202C040
:100F200010920D0286B180911002882351F48091B5
:100F300002029091030201969093030280930202B1
:100F400006C0813021F40E946E050E9401040E94B7
:100F500058010E943403809102029091030201978C
:100F600039F48AE10E94600E90930F0280930E0282
:100F70008091020290910302049711F40E94B30041
:100F80008091020290910302059711F40E940104DE
:100F90008091020290910302069731F40E9480062C
:100FA00010920302109202020895FF920F931F9372
:100FB0008BE061E00E94820E84E061E00E94820E7C
:100FC00083E061E00E94820E8DE061E00E94820E6B
:100FD00087E061E00E94820E82E061E00E94820E62
:100FE0008AE061E00E94820E86E061E00E94820E4B
:100FF00089E061E00E94820E85E061E00E94820E3D
:101000008AE160E00E94820E89E160E00E94820E27
:101010008BE160E00E94820E88E160E00E94820E17
:1010200085E060E00E94E60E2EE088E190E00FB6D9
:10103000F894A895809360000FBE2093600005E1AE
:1010400013E0C8010E940D0AC80168E670E00E9422
:101050003309C80167E00E94B509C80160E10E9438
:10106000B509C8010E94F8090E9480060E941F0568
:101070000E94720481E08093F601E2E0FE2EF0927D
:10108000F80109EC12E0C80144E650E060E070E0CD
:101090000E94FD08C80167E974E02FEF3FEF4FEFB2
:1010A0005FEF0E9405090E94FC0682E38093120212
:1010B000F092C8021F910F91FF9008951F920F9216
:1010C0000FB60F920BB60F9211242F933F934F93AD
:1010D0005F936F937F938F939F93AF93BF93EF93A0
:1010E000FF93E091CD02F091CE020995FF91EF912F
:1010F000BF91AF919F918F917F916F915F914F9130
:101100003F912F910F900BBE0F900FBE0F901F902D
:101110001895FC01A3E0440F551F661F771FAA9581
:10112000D1F7403080E0580781E0680780E0780719
:1011300014F481E010C033E0759567955795479595
:101140003A95D1F7403080E0580781E0680780E0A9
:1011500078071CF482E0828339C023E07595679597
:10116000579547952A95D1F7403080E0580781E0A0
:10117000680780E0780714F483E0EDCF92E075957E
:101180006795579547959A95D1F7403080E0580775
:1011900081E0680780E0780714F484E0DCCF82E027
:1011A00075956795579547958A95D1F7403080E0BA
:1011B000580781E0680780E0780714F485E0CBCF1A
:1011C00085E082834FEF5FEF60E070E08FB783834D
:1011D000F894518340835093870040938600838125
:1011E0008FBF80918100887F8093810080918100F2
:1011F0009281892B8093810008951092800020E1D4
:10120000209381000E94890808950F931F93CF9324
:10121000DF93EC018B01121613061406150624F455
:10122000BA01A9010E9489081D830C8381E0809383
:101230006F00809181009A81892B80938100DF91DA
:10124000CF911F910F910895E1E8F0E02081DC013A
:1012500012968C91282B20830895E1E8F0E080819C
:10126000887F8083089581E0809314036093F10266
:10127000109212031092130308952091F00230E0AF
:101280008091EF02281B3109C90108954091EF02B6
:101290008091F002481718F02FEF3FEF0AC0E42FBB
:1012A000F0E0E153FD4F8081282F30E04F5F409305
:1012B000EF02C9010895E091EF028091F002E81772
:1012C00018F0EFEFFFEF06C0F0E0E153FD4F808133
:1012D000E82FF0E0CF0108950895109218031092BE
:1012E000170388EE93E0A0E0B0E080931903909399
:1012F0001A03A0931B03B0931C038BED91E0909312
:101300001603809315030895CF92DF92EF92FF9218
:101310000F931F93CF93DF937C016B018A01809120
:1013200014038823A1F0C0E0D0E00DC0D701ED91F7
:10133000FC91D601AC0FBD1F0190F081E02DC701DB
:101340006C9109952196C017D10780F304C0CB0199
:10135000642F0E94B60AC801DF91CF911F910F91AF
:10136000FF90EF90DF90CF900895DF93CF930F928F
:10137000CDB7DEB7FC016983809114038823C9F0DF
:1013800080911303803238F081E090E09383828370
:1013900020E030E015C080911203E82FF0E0EE501D
:1013A000FD4F998190838F5F809312038093130385
:1013B00005C0CE01019661E00E94B60A21E030E04E
:1013C000C9010F90CF91DF9108950F93062F80915F
:1013D000F10262EF72E04091130321E00E94610A82
:1013E0001092120310921303109214030F91089598
:1013F00061E00E94E5090895413208F040E2862F3D
:101400006FEC72E00E94180A1092EF028093F002D3
:10141000089521E00E94FC0908951092EF021092B5
:10142000F00210921203109213030E94660C0895AA
:10143000382F413210F040E042C0809121038823D0
:10144000E1F791E090932103209323038FEF8093A2
:101450008E0310924903415040934A034F5F90938B
:10146000220380912203330F832B809322038091E8
:101470002403813041F4109224038091220380934D
:10148000BB0085EC01C085EE8093BC0080912103F8
:101490008130E1F380914903841710F440914903AE
:1014A00020E030E00AC0FB01E20FF31FD901A75D85
:1014B000BC4F8C9180832F5F3F4F2417A0F3842F64
:1014C00008950F931F93582F122F413210F081E08F
:1014D0004AC0809121038823E1F782E080932103B1
:1014E000009323038FEF80938E0310924903409360
:1014F0004A03A9E2B3E0FB0102C081918D938E2FD4
:10150000861B8417D0F31092220380912203550F7B
:10151000852B8093220380912403813041F4109223
:101520002403809122038093BB0085EC01C085EEEB
:101530008093BC00112321F0809121038230E1F3DC
:1015400080918E038F3F11F480E00DC080918E0357
:10155000803211F482E007C080918E03803311F055
:1015600084E001C083E01F910F910895482F6132FC
:1015700010F081E0089580912103843011F082E021
:10158000089560936C03ABE4B3E0842F9C01F901F0
:1015900002C081918D938E2F841B8617D0F380E03B
:1015A00008951F920F920FB60F920BB60F9211244F
:1015B0002F933F934F935F936F937F938F939F935B
:1015C000AF93BF93EF93FF938091B90090E0887F32
:1015D00090708036910509F4F2C081369105CCF502
:1015E0008832910509F47BC089329105B4F48031C9
:1015F000910509F46FC0813191053CF4009709F41D
:1016000047C1089709F04FC165C08831910509F4B9
:1016100066C0809709F047C182C08034910509F403
:10162000A4C08134910544F48033910509F482C04B
:10163000C89709F038C189C08035910509F489C07F
:101640008835910509F496C08834910509F02BC1BD
:10165000AEC08839910509F413C189399105ECF4BC
:101660008837910509F4ABC0893791054CF4883669
:10167000910509F4A4C08037910509F014C19FC0F9
:101680008838910509F4FCC08039910509F49DC0A2
:101690008038910509F007C198C0803B910509F495
:1016A000C6C0813B91054CF4803A910509F49FC076
:1016B000883A910509F0F7C0BAC0803C910509F459
:1016C000E3C0883C910509F4DFC0883B910509F02F
:1016D000EAC0C2C0809122038093BB00CFC090912A
:1016E000490380914A03981768F490914903E92FC0
:1016F000F0E0E75DFC4F80818093BB009F5F90939B
:101700004903BCC080912303882309F44BC085EDB5
:101710008093BC008091BC0084FDFCCFC2C080E2FD
:1017200080938E0385ED8093BC008091BC0084FD86
:10173000FCCFB7C080E380938E0385ED8093BC001F
:101740008091BC0084FDFCCFACC088E380938E0305
:101750009BC0809149039091BB00E82FF0E0E75DCA
:10176000FC4F90838F5F8093490390914903809150
:101770004A0382C0809149039091BB00E82FF0E0BA
:10178000E75DFC4F90838F5F809349038091230333
:10179000882341F085ED8093BC008091BC0084FDDE
:1017A000FCCF7FC081E08093240384EA6EC085ED86
:1017B0008093BC008091BC0084FDFCCF72C083E0AC
:1017C0008093210310928D0359C080918D03803244
:1017D00008F056C080918D039091BB00E82FF0E097
:1017E000E359FC4F90838F5F80938D0347C08091B6
:1017F0008D03803230F4E0918D03F0E0E359FC4F2B
:10180000108285ED8093BC008091BC0084FDFCCFEC
:101810001092210360918D03E0912703F09128033A
:101820008DE693E070E0099510928D032DC084E061
:101830008093210310926B0310926C03E0912503B7
:10184000F0912603099580916C03882329F481E0A7
:1018500080936C0310924B0390916B03E92FF0E09F
:10186000E55BFC4F80818093BB009F5F90936B038F
:1018700090916B0380916C03981710F485EC01C074
:1018800085E88093BC000FC085EC8093BC0009C044
:1018900010928E0385ED8093BC008091BC0084FD86
:1018A000FCCF10922103FF91EF91BF91AF919F91D7
:1018B0008F917F916F915F914F913F912F910F90F9
:1018C0000BBE0F900FBE0F901F9018951092210322
:1018D00081E0809323031092240381E161E00E9460
:1018E000E60E80E161E00E94E60EE9EBF0E0808127
:1018F0008E7F808380818D7F808388E48093B80091
:1019000085E48093BC0008952F923F925F926F927E
:101910007F928F929F92AF92BF92CF92DF92EF927F
:10192000FF920F931F93DF93CF9300D000D00F92BD
:10193000CDB7DEB73C01962E19821A821B821C821B
:101940001D82862F61E00E94820E892D60E00E9438
:10195000E60E62E170E080E090E00E94BF0D892D0C
:1019600061E00E94E60E8AE990E00197F1F7892D87
:1019700060E00E94820E00E117E205C0011511052A
:10198000A1F101501040892D0E94190F892BB1F34C
:1019900000E117E205C00115110539F101501040B1
:1019A000892D0E94190F0197B1F306C00115110589
:1019B000E1F0015010400AC057E0852E5524AA24BA
:1019C000BB2441E0242E312C00E117E2892D0E9436
:1019D000190F892B59F30E94990D6B017C0100E1CD
:1019E00017E208C00115110519F42EEF3FEF41C0B1
:1019F00001501040892D0E94190F019799F30E9400
:101A0000990D6C197D098E099F096932710581054F
:101A1000910580F0E1E0F0E0EC0FFD1FE50DF11D18
:101A20009101082C02C0220F331F0A94E2F7808133
:101A3000822B8083882021F4539437E0832E01C0C9
:101A40008A940894A11CB11C88E2A816B10409F07C
:101A5000BBCF8981F301808311829B8192831382A2
:101A6000980F8D81891719F420E030E002C02FEF24
:101A70003FEFC9010F900F900F900F900F90CF91F3
:101A8000DF911F910F91FF90EF90DF90CF90BF906B
:101A9000AF909F908F907F906F905F903F902F902E
:101AA00008951F920F920FB60F9211242F933F9318
:101AB0008F939F93AF93BF938091930390919403DF
:101AC000A0919503B0919603309197030196A11DC3
:101AD000B11D232F2D5F2D3720F02D570196A11D0D
:101AE000B11D209397038093930390939403A09345
:101AF0009503B093960380918F0390919003A091EA
:101B00009103B09192030196A11DB11D80938F03A3
:101B100090939003A0939103B0939203BF91AF91E0
:101B20009F918F913F912F910F900FBE0F901F901B
:101B300018959FB7F89420918F03309190034091AE
:101B400091035091920386B5A89B06C08F3F21F068
:101B50002F5F3F4F4F4F5F4F9FBF542F432F322F69
:101B60002227280F311D411D511D82E0220F331FF6
:101B7000441F551F8A95D1F7B901CA0108959B01E9
:101B8000AC017FB7F89480918F0390919003A0915E
:101B90009103B091920366B5A89B05C06F3F19F001
:101BA0000196A11DB11D7FBFBA2FA92F982F88279D
:101BB000860F911DA11DB11D62E0880F991FAA1FFC
:101BC000BB1F6A95D1F7BC012DC0FFB7F894809177
:101BD0008F0390919003A0919103B0919203E6B589
:101BE000A89B05C0EF3F19F00196A11DB11DFFBFD5
:101BF000BA2FA92F982F88278E0F911DA11DB11DD7
:101C0000E2E0880F991FAA1FBB1FEA95D1F7861B38
:101C1000970B885E9340C8F22150304040405040BE
:101C200068517C4F211531054105510571F6089524
:101C3000789484B5826084BD84B5816084BD85B5A7
:101C4000826085BD85B5816085BDEEE6F0E080816E
:101C500081608083E1E8F0E010828081826080838F
:101C6000808181608083E0E8F0E080818160808312
:101C7000E1EBF0E0808184608083E0EBF0E0808144
:101C800081608083E1E9F0E08081826080838081EF
:101C900081608083E0E9F0E0808181608083EAE711
:101CA000F0E0808184608083808182608083808195
:101CB000816080838081806880831092C100089554
:101CC000982F883108F0985197708091D6018295AD
:101CD000880F880F807C892B80937C0080917A000C
:101CE000806480937A0080917A0086FDFCCF2091F9
:101CF000780040917900942F80E030E0282B392B38
:101D0000C9010895482F50E0CA0186539F4FFC0136
:101D1000249146555F4FFA0184918823C1F0E82F42
:101D2000F0E0EE0FFF1FE457FF4FA591B49166233B
:101D300041F49FB7F8948C91209582238C939FBF98
:101D400008959FB7F8948C91822B8C939FBF089530
:101D50008430C9F0853038F48230F1F0833078F483
:101D6000813099F516C08730F9F0883018F4863044
:101D700061F516C08830F1F0893039F521C08091C5
:101D800080008F7703C0809180008F7D80938000DA
:101D9000089584B58F7702C084B58F7D84BD089582
:101DA0008091B0008F7703C08091B0008F7D8093C9
:101DB000B0000895809190008F77809390000895EF
:101DC000809190008F7D809390000895FF920F93F3
:101DD0001F93F62E482F50E0CA0186519F4FFC01F9
:101DE0002491CA0186539F4FFC01149146555F4FC1
:101DF000FA0104910023C9F0222319F0822F0E94D6
:101E0000A80EE02FF0E0EE0FFF1FEA56FF4FA5915E
:101E1000B4919FB7F894FF2021F48C911095812301
:101E200002C08C91812B8C939FBF1F910F91FF90CB
:101E300008950F931F93482F50E0CA0186519F4F7A
:101E4000FC012491CA0186539F4FFC010491465521
:101E50005F4FFA011491112319F420E030E015C00E
:101E6000222319F0822F0E94A80E812F90E0880F64
:101E7000991F80569F4FFC01A591B4918C9120E051
:101E800030E0802311F021E030E0C9011F910F9173
:101E90000895CF93DF930E94180E0E94D507C0E0EB
:101EA000D0E00E942D072097E1F30E940000F9CFB7
:101EB00004D06894B1118DC0089570D088F09F57F8
:101EC00090F0B92F9927B751A0F0D1F0660F771F86
:101ED000881F991F1AF0BA95C9F712C0B13081F066
:101EE00077D0B1E0089574C0672F782F8827B85F46
:101EF00039F0B93FCCF3869577956795B395D9F7C7
:101F00003EF490958095709561957F4F8F4F9F4FD0
:101F10000895E89409C097FB3EF4909580957095DC
:101F200061957F4F8F4F9F4F9923A9F0F92F96E925
:101F3000BB279395F695879577956795B795F1119A
:101F4000F8CFFAF4BB0F11F460FF1BC06F5F7F4F37
:101F50008F4F9F4F16C0882311F096E911C0772349
:101F600021F09EE8872F762F05C0662371F096E852
:101F7000862F70E060E02AF09A95660F771F881F21
:101F8000DAF7880F9695879597F9089557FD905839
:101F9000440F551F59F05F3F71F04795880F97FB2D
:101FA000991F61F09F3F79F08795089512161306E7
:101FB0001406551FF2CF4695F1DF08C01616170616
:101FC0001806991FF1CF869571056105089408954B
:101FD000E894BB2766277727CB0197F90895991BCB
:101FE00079E004C0991F961708F0961B881F7A9510
:101FF000C9F78095089587FB082E062687FD8195F1
:1020000067FD6195ECDF0EF4919507FC81950895CD
:10201000EE0FFF1F0590F491E02D0994F894FFCF87
:102020007E0CB69ECCDAFA0EFEDEEEF872BCF2E260
:10203000F03F065B4F666D7D077F6F777C395E7979
:102040007178020002000200040004000400010094
:10205000010001000100020004000200020004006F
:10206000020004000400020002000100020001005E
:102070000100040004000100040001000100080048
:1020800008000800100010001000200020002000B0
:1020900010002000080008000800100008001000D0
:1020A0001000080008002000080020002000100098
:1020B00010002000100020002000400040004000E0
:1020C00080008000800000010001000140008000CD
:1020D000000140004000800040008000800040007F
:1020E000400000014000000100018000800000016C
:1020F0008000000100010100000000B50984093DD5
:082100000946095B096C0900A6
:00000001FF
